:020000040000FA
:08000000803102288731F72F3F
:100D9600510191019301920108009030460196009D
:100DA6003E30950040309400080001304501900027
:100DB6008F019101F9308D008C014E010D138030A9
:100DC60045018E00080040011A109A1019120030D1
:100DD600F600F7008731352786312130FA00763064
:100DE600890BF32EFA0BF32E0032080040011A1479
:100DF6009A1419168430F6000330F7008731352728
:100E060086312130FA007630890B072FFA0B072F2F
:100E16000032080040011A149A101912FA30F6002E
:100E26000030F7008731352787312130FA007630D8
:100E3600890B1B2FFA0B1B2F0032080040011A14D6
:100E46009A141912F430F6000130F700873135276D
:100E560087312130FA007630890B2F2FFA0B2F2F8E
:100E6600003208007708F9007608F800F936F80C21
:100E7600F936F80C78084601950076080339F8002B
:100E86000530F835FF3E031D442F783594000800E1
:100E96008731862787318631CB2687318631D8261A
:100EA60087318631D0268731F001F1018731B227AB
:100EB60087311130FB003A30890B5F2FFB0B5F2F18
:100EC6000032592F8031022840011A149A1419163B
:100ED600A330FA005530890B6E2FFA0B6E2F0000E7
:100EE60040011A109A101912A330FA005530890BD6
:100EF6007A2FFA0B7A2F00000030F600F7008731C0
:100F06003527873108004001980199019A01103070
:100F16009200F0309300FF3094007E01C401B901C5
:100F2600CF01BA01C501D0013730BB00F030C60091
:100F3600FF30D1003F30BC00F030C700FF30D20098
:100F4600CE01C301B80140011211131214109410FE
:100F560094161417941703307E019200080040017E
:100F66008E1BB62FB72FC32F0E1BBA2FBB2FC32F27
:100F76008E1ABE2FBF2FC32F873167278731F62FD3
:100F86008E1FC62FC72FD32F0E1BCA2FCB2FD32FA3
:100F96008E1ACE2FCF2FD32F87310D278731F62FDD
:100FA6008E1FD62FD72FE32F0E1FDA2FDB2FE32F1F
:100FB6008E1ADE2FDF2FE32F873121278731F62F79
:100FC6008E1FE62FE72FF32F0E1FEA2FEB2FF32F9F
:100FD6008E1EEE2FEF2FF32F8631F9268731F62F4F
:100FE6008631E62687310800F001F101F201F301AE
:0A0FF600F401F501400187314B2F93
:020000040001F9
:04000E00ED3FE73F9C
:04001400FF3FFF3F6C
:00000001FF
